:100000000C94B5000C94D2000C94D2000C94D20045
:100010000C94D2000C94D2000C94D2000C94D20018
:100020000C94D2000C94D2000C94D2000C94D20008
:100030000C94D2000C94D2000C94D2000C94D200F8
:100040000C94D2000C94D2000C94D2000C94D200E8
:100050000C94D2000C94D2000C94D2000C94D200D8
:100060000C9486020C94D2006E616E00696E66007C
:1000700000407A10F35A00A0724E18090010A5D45F
:10008000E80000E87648170000E40B54020000CABC
:100090009A3B000000E1F505000080969800000002
:1000A00040420F000000A086010000001027000061
:1000B0000000E803000000006400000000000A00E7
:1000C000000000000100000000002C76D888DC67EA
:1000D0004F0823DFC1DFAE59E1B1B796E5E3E45342
:1000E000C63AE651997696E8E6C28426EB898C9B5F
:1000F00062ED407C6FFCEFBC9C9F40F2BAA56FA5FF
:10010000F490055A2AF75C936B6CF9676DC11BFC80
:10011000E0E40D47FEF520E6B500D0ED902E03009B
:10012000943577050080841E080000204E0A0000E8
:1001300000C80C333333330F986E12831141EF8DA7
:100140002114893BE65516CFFEE6DB18D1844B38E7
:100150001BF77C1D901DA4BBE424203284725E2218
:100160008100C9F124ECA1E53D2711241FBECFEF8A
:10017000D8E0DEBFCDBF11E0A0E0B1E0E0E2F7E102
:1001800002C005900D92A83BB107D9F721E0A8EB7A
:10019000B1E001C01D92A23EB207E1F70E942B031D
:1001A0000C948E0B0C94000080E090E037C08530FA
:1001B0009105D4F46AB121E030E0FC01E15FFE4F2B
:1001C000A901008002C0440F551F0A94E2F7462B94
:1001D0004AB94BB1008002C0220F331F0A94E2F7E4
:1001E000209524232BB919C064B121E030E0FC0133
:1001F000E15FFE4FA901008002C0440F551F0A9421
:10020000E2F7462B44B945B1008002C0220F331FEC
:100210000A94E2F72095242325B9019688309105A8
:1002200034F2089584B1886284B984B18F7E84B930
:100230008AB184608AB98AB188608AB981E58CBD47
:100240008BB184608BB98BB188608BB90895CF93E3
:10025000DF9300D000D000D0CDB7DEB71B8262FBA9
:10026000992790F99460998390E4699FB0011124D3
:100270006A831C821D821E82813009F040C08BB1CE
:100280008B7F8BB940E02EC0242F30E0E1E0F0E01E
:10029000EC0FFD1FE20FF31F80818EBD88EE93E00F
:1002A0000DB407FC02C00197D9F7892B91F43F9355
:1002B0002F9387E191E09F938F930E94EA0A8BB17D
:1002C00084608BB90F900F900F900F9080E090E0BA
:1002D00055C08EB5E4E0F0E0EC0FFD1FE20FF31F18
:1002E00080834F5F433080F28BB184608BB98D8106
:1002F0008F7090E0982F88272E81822B3FC08BB182
:10030000877F8BB940E02EC0242F30E0E1E0F0E0A1
:10031000EC0FFD1FE20FF31F80818EBD88EE93E08E
:100320000DB407FC02C00197D9F7892B91F43F93D4
:100330002F9387E191E09F938F930E94EA0A8BB1FC
:1003400088608BB90F900F900F900F9080E090E035
:1003500015C08EB5E4E0F0E0EC0FFD1FE20FF31FD7
:1003600080834F5F433080F28BB188608BB98D8181
:100370008F7090E0982F88272E81822B26960FB6BB
:10038000F894DEBF0FBECDBFDF91CF910895CF921D
:10039000DF92EF92FF921F93CF93DF93182FD62F08
:1003A0008FE291E00E94000BC0E0C12CD12C7601BD
:1003B0002EC06D2F812F0E942701BC0180E090E0AC
:1003C0000E94B60420E030E040EA50E40E94440578
:1003D00020E030E040E859E30E94440520E030E0AE
:1003E0004BEE53E40E9415049B01AC010E944405AE
:1003F0009B01AC01C701B6010E94A9036B017C01FE
:100400008FE891E00197F1F700C00000CF5FC4369C
:1004100080F220E030E048EC52E4C701B6010E94CF
:1004200015040E94B705F62E172FD82FC92F9F93BA
:100430008F937F936F9388E491E09F938F930E94B3
:10044000EA0A20E030E84BEB54E46F2D712F8D2F3A
:100450009C2F0E9444050F900F900F900F900F90CB
:100460000F90DF91CF911F91FF90EF90DF90CF9091
:100470000895CF92DF92EF92FF92CF93DF93C82F30
:100480006A017B0182E591E00E94000BCC0FD0E075
:1004900020E030E048EC52E4C701B6010E94440578
:1004A0000E948704FE01E453FE4F6083C353DE4F76
:1004B0007883DF91CF91FF90EF90DF90CF900895F8
:1004C00087B1837F87B988B18C6088B986B1847021
:1004D00090E09595879595958795282F220F96B151
:1004E0009870892F90E09595879595958795959526
:1004F0008795822B805E880F8093BA0008950E94B2
:10050000600285E48093BC00789408951F920F9256
:100510000FB60F9211242F933F938F939F93EF93D6
:10052000FF938091B900887F883A69F140F488365A
:1005300081F08038A1F0803609F074C00AC0803C98
:1005400009F46AC0883C09F467C0883B09F44CC0D0
:1005500069C01092C90185EC8093BC0066C080918F
:10056000C901811107C081E08093CA018091BB005D
:100570008093CB018091C9018F5F8093C90185EC85
:100580008093BC0052C08091CA01813031F58091C6
:10059000CB01813069F013C0822F90E0FC01E4535D
:1005A000FE4F3081FC01E754FE4F30832F5F01C0C6
:1005B00020E0203188F380E18093000106C08FEFB6
:1005C0008093B90181E08093000181E08093B801BC
:1005D0008091B9018093BB0003C08FEF8093BB0073
:1005E00085EC8093BC0021C0E091B80180910001AE
:1005F000E81758F481E08E0F8093B801F0E0E754DB
:10060000FE4F80818093BB0003C08FEF8093BB00BF
:1006100085EC8093BC0009C01092CA0185EC8093E0
:10062000BC0003C085EC8093BC00FF91EF919F91CB
:100630008F913F912F910F900FBE0F901F901895A3
:100640009093C5008093C40088E08093C10086E049
:100650008093C200089587E690E00E94200381E025
:1006600091E09093DF018093DE010E94D4000E940C
:100670007F020E94120187E691E00E94000BD0E009
:10068000C0E025C06D2F81E00E94C701E62EF72E45
:10069000082F192F9F938F937F936F931F92CF9360
:1006A00087E791E09F938F930E94EA0A4E2D5F2D7A
:1006B000602F712F8C2F0E943902CF5FDE5F8DB7C4
:1006C0009EB708960FB6F8949EBF0FBE8DBFD83068
:1006D000C8F2D0E025C06D2F82E00E94C701E62E4F
:1006E000F72E082F192F9F938F937F936F931F924D
:1006F000CF9387E991E09F938F930E94EA0A4E2D52
:100700005F2D602F712F8C2F0E943902CF5FDE5F2B
:100710008DB79EB708960FB6F8949EBF0FBE8DBFDB
:10072000D830C8F2ACCF9091C00095FFFCCF809339
:10073000C6000895CF93C82F8A3019F48DE00E9427
:1007400093038C2F0E94930380E090E0CF91089553
:100750005058BB27AA270E94C0030C940A050E9488
:10076000FC0438F00E94030520F039F49F3F19F48F
:1007700026F40C94F9040EF4E095E7FB0C94F304D2
:10078000E92F0E941B0558F3BA1762077307840705
:10079000950720F079F4A6F50C943D050EF4E0954C
:1007A0000B2EBA2FA02D0B01B90190010C01CA012B
:1007B000A0011124FF27591B99F0593F50F4503ED6
:1007C00068F11A16F040A22F232F342F4427585FC8
:1007D000F3CF469537952795A795F0405395C9F7E0
:1007E0007EF41F16BA0B620B730B840BBAF0915098
:1007F000A1F0FF0FBB1F661F771F881FC2F70EC037
:10080000BA0F621F731F841F48F487957795679509
:10081000B795F7959E3F08F0B0CF9395880F08F0F5
:100820009927EE0F9795879508950E9429040C94B7
:100830000A050E94030558F00E94FC0440F029F4C8
:100840005F3F29F00C94F30451110C943E050C9475
:10085000F9040E941B0568F39923B1F3552391F322
:10086000951B550BBB27AA2762177307840738F01F
:100870009F5F5F4F220F331F441FAA1FA9F335D07C
:100880000E2E3AF0E0E832D091505040E695001C30
:10089000CAF72BD0FE2F29D0660F771F881FBB1FEA
:1008A000261737074807AB07B0E809F0BB0B802DC8
:1008B000BF01FF2793585F4F3AF09E3F510578F0F4
:1008C0000C94F3040C943E055F3FE4F3983ED4F39C
:1008D000869577956795B795F7959F5FC9F7880FC8
:1008E000911D9695879597F90895E1E0660F771F1A
:1008F000881FBB1F621773078407BA0720F0621BAB
:10090000730B840BBA0BEE1F88F7E09508950E94D5
:10091000230588F09F5798F0B92F9927B751B0F069
:10092000E1F0660F771F881F991F1AF0BA95C9F773
:1009300014C0B13091F00E943D05B1E008950C94CF
:100940003D05672F782F8827B85F39F0B93FCCF382
:10095000869577956795B395D9F73EF490958095F0
:10096000709561957F4F8F4F9F4F0895E89409C010
:1009700097FB3EF490958095709561957F4F8F4FD2
:100980009F4F9923A9F0F92F96E9BB279395F695E8
:10099000879577956795B795F111F8CFFAF4BB0F66
:1009A00011F460FF1BC06F5F7F4F8F4F9F4F16C0CA
:1009B000882311F096E911C0772321F09EE8872F54
:1009C000762F05C0662371F096E8862F70E060E010
:1009D0002AF09A95660F771F881FDAF7880F969589
:1009E000879597F9089597F99F6780E870E060E030
:1009F00008959FEF80EC089500240A9416161706B8
:100A000018060906089500240A94121613061406FF
:100A100005060895092E0394000C11F4882352F062
:100A2000BB0F40F4BF2B11F460FF04C06F5F7F4F1A
:100A30008F4F9F4F089557FD9058440F551F59F001
:100A40005F3F71F04795880F97FB991F61F09F3FBB
:100A500079F087950895121613061406551FF2CFE4
:100A60004695F1DF08C0161617061806991FF1CF34
:100A700086957105610508940895E894BB2766275B
:100A80007727CB0197F908950E9457050C940A0522
:100A90000E94FC0438F00E94030520F0952311F019
:100AA0000C94F3040C94F90411240C943E050E9458
:100AB0001B0570F3959FC1F3950F50E0551F629F82
:100AC000F001729FBB27F00DB11D639FAA27F00DA7
:100AD000B11DAA1F649F6627B00DA11D661F829FCE
:100AE0002227B00DA11D621F739FB00DA11D621FB3
:100AF000839FA00D611D221F749F3327A00D611DD0
:100B0000231F849F600D211D822F762F6A2F1124B1
:100B10009F5750409AF0F1F088234AF0EE0FFF1FE4
:100B2000BB1F661F771F881F91505040A9F79E3F3B
:100B3000510580F00C94F3040C943E055F3FE4F300
:100B4000983ED4F3869577956795B795F795E79591
:100B50009F5FC1F7FE2B880F911D9695879597F99A
:100B6000089519F416F40C94F9040C94F7050E94F6
:100B70002305B8F39923C9F3B6F39F57550B87FFA5
:100B80000E9405060024A0E640EA90018058569590
:100B9000979528F4805C660F771F881F20F0261732
:100BA0003707480730F4621B730B840B2029312967
:100BB0004A2BA69517940794202531254A2758F7E4
:100BC000660F771F881F20F026173707480730F475
:100BD000620B730B840B200D311D411DA09581F715
:100BE000B901842F9158880F9695879508959F3F56
:100BF00031F0915020F4879577956795B795880FD8
:100C0000911D9695879597F9089591505040660FDC
:100C1000771F881FD2F70895A0E1B0E0E2E1F6E087
:100C20000C9489097C011B016A01FC011782168260
:100C3000838181FF44C39E012F5F3F4F3901F7013C
:100C40009381F10193FD859193FF81911F01882389
:100C500009F431C3853239F493FD859193FF819175
:100C60001F01853239F4B70190E00E94AE0A5601A7
:100C70006501E5CF10E0512C912CFFE1F915D8F07A
:100C80008B3279F038F4803279F08332A1F4F92D87
:100C9000F0612EC08D3261F0803369F4292D21601E
:100CA0002DC0392D3260932E892D8460982E2AC054
:100CB000E92DE86015C097FC2DC020ED280F2A30E3
:100CC00088F496FE06C03AE0139F200D1124122FDF
:100CD00019C08AE0589E200D1124522EE92DE062A1
:100CE0009E2E10C08E3231F496FCE5C2F92DF064D0
:100CF0009F2E08C08C3621F4292D2068922E02C028
:100D0000883641F4F10193FD859193FF81911F0194
:100D10008111B3CF9BEB980F933020F4992D906104
:100D2000805E07C09BE9980F933008F066C1992D4B
:100D30009F7E96FF16E09F73992E853619F4906476
:100D4000992E08C0863621F4392F3068932E02C0C0
:100D50001111115097FE07C01C3350F444244394E2
:100D6000410E27E00BC0183038F027E017E005C02F
:100D700027E09CE3492E02C0212F412C560184E03C
:100D8000A80EB11CF6016081718182819381042DCE
:100D9000A3010E94C0096C01F981FC87F0FF02C029
:100DA000F3FF06C091FC06C092FE06C000E205C03B
:100DB0000DE203C00BE201C000E08C858C7019F0DD
:100DC00001115AC29BC297FE10C04C0CFC85F4FF67
:100DD00004C08A81813309F44A94141474F528E01C
:100DE000241578F588E0482E2CC096FC2AC0812F67
:100DF00090E08C159D059CF03CEFC3163FEFD306A9
:100E000074F0892D8068982E0AC0E2E0F0E0EC0FC3
:100E1000FD1FE10FF11D8081803319F41150111174
:100E2000F4CF97FE0EC044244394410E812F90E0EE
:100E3000C816D9062CF41C1904C04424439401C0DC
:100E400010E097FE06C01C141D0434F4C601019680
:100E500005C085E090E002C081E090E001110196BC
:100E6000112331F0212F30E02F5F3F4F820F931F6E
:100E7000252D30E08217930714F4581A01C0512C25
:100E8000892D897049F4552039F0B70180E290E04E
:100E90000E94AE0A5A94F7CF002329F0B701802FA1
:100EA00090E00E94AE0A93FC09C0552039F0B701CA
:100EB00080E390E00E94AE0A5A94F7CF97FE4CC0B0
:100EC0004601D7FE02C0812C912CC60188199909D0
:100ED000F301E80FF91FFE87ED8796012419310908
:100EE000388B2F87012F10E01195019511093FEFE5
:100EF0008316930629F4B7018EE290E00E94AE0AB1
:100F0000C814D9044CF08F8598898815990524F464
:100F1000ED85FE85818101C080E3F1E08F1A9108A3
:100F20002D853E852F5F3F4F3E872D87801691068A
:100F30002CF0B70190E00E94AE0AD9CFC814D904B2
:100F400041F49A81963320F4953319F43C8534FFAB
:100F500081E3B70190E04EC08A81813319F09C850E
:100F60009F7E9C87B70190E00E94AE0A111105C0D8
:100F700094FC18C085E690E017C0B7018EE290E0BF
:100F80000E94AE0A1E5F82E001E0080FF301E80F45
:100F9000F11D8081B70190E00E94AE0A802F0113FD
:100FA000F3CFE6CF85E490E0B7010E94AE0AD7FC0C
:100FB00006C0C114D10441F4EC85E4FF05C0D1940E
:100FC000C194D1088DE201C08BE2B70190E00E948C
:100FD000AE0A80E32AE0C216D1042CF08F5FFAE05B
:100FE000CF1AD108F7CFB70190E00E94AE0AB7013F
:100FF000C601C0960E94AE0A54C1833631F08337D1
:1010000079F0833509F056C020C0560132E0A30EB6
:10101000B11CF6018081898301E010E0630112C0F8
:101020005601F2E0AF0EB11CF601C080D18096FEF1
:1010300003C0612F70E002C06FEF7FEFC6010E9416
:10104000A30A8C01F92DFF7714C0560122E0A20EED
:10105000B11CF601C080D18096FE03C0612F70E004
:1010600002C06FEF7FEFC6010E94980A8C01F92D34
:10107000F0689F2EF3FD1AC0852D90E00817190720
:10108000A8F4B70180E290E00E94AE0A5A94F4CF2F
:10109000F60197FC859197FE81916F01B70190E071
:1010A0000E94AE0A51105A94015011090115110500
:1010B00079F7F7C0843611F0893661F5560197FE4D
:1010C00009C024E0A20EB11CF60160817181828109
:1010D00093810AC0F2E0AF0EB11CF601608171810C
:1010E000072E000C880B990BF92DFF769F2E97FF8A
:1010F00009C090958095709561957F4F8F4F9F4F58
:10110000F0689F2E2AE030E0A3010E94300BC82E29
:10111000C6183FC0092D853721F40F7E2AE030E044
:101120001DC0097F8F3691F018F4883559F0C3C07F
:10113000803719F0883711F0BEC0006104FF09C084
:10114000046007C094FE08C0066006C028E030E0D6
:1011500005C020E130E002C020E132E0560107FF87
:1011600009C084E0A80EB11CF60160817181828102
:10117000938108C0F2E0AF0EB11CF601608171816D
:1011800080E090E0A3010E94300BC82EC6180F77B4
:10119000902E96FE0BC0092D0E7FC11650F494FEC2
:1011A0000AC092FC08C0092D0E7E05C0DC2C092D5A
:1011B00003C0DC2C01C0D12E04FF0DC0FE01EC0DDC
:1011C000F11D8081803311F4097E09C002FF06C041
:1011D000D394D39404C0802F867809F0D39403FD70
:1011E00011C000FF06C01C2DD51480F4150D1D196B
:1011F0000DC0D51458F4B70180E290E00E94AE0A09
:10120000D394F7CFD51410F45D1801C0512C04FF0E
:1012100010C0B70180E390E00E94AE0A02FF17C041
:1012200001FD03C088E790E002C088E590E0B701C7
:101230000CC0802F867859F001FF02C08BE201C0FC
:1012400080E207FD8DE2B70190E00E94AE0AC11670
:1012500038F4B70180E390E00E94AE0A1150F7CF56
:10126000CA94F301EC0DF11D8081B70190E00E945A
:10127000AE0AC110F5CF15C0F4E0F51560F584E0B5
:10128000581A93FE1FC0011127C02C8523FF2AC0C6
:1012900008E610E0392D3071932EF8018491811108
:1012A00024C0552009F4E4CCB70180E290E00E940C
:1012B000AE0A5A94F6CFF7018681978126C08FEF48
:1012C0009FEF23C0B70180E290E00E94AE0A5A94DB
:1012D0005110F8CFD8CF512CB701802F90E00E9449
:1012E000AE0AD3CF0CE610E0D5CF91108052B701F3
:1012F00090E00E94AE0A0F5F1F4FCFCF23E025156D
:1013000010F483E0BDCF512CC0CF6096E2E10C9485
:10131000A5092F923F924F925F926F927F928F9288
:101320009F92AF92BF92CF92DF92EF92FF920F9374
:101330001F93CF93DF93CDB7DEB7CA1BDB0B0FB67E
:10134000F894DEBF0FBECDBF09942A88398848883B
:101350005F846E847D848C849B84AA84B984C884D1
:10136000DF80EE80FD800C811B81AA81B981CE0FC8
:10137000D11D0FB6F894DEBF0FBECDBFED010895AD
:10138000283008F027E03327DA01990F311D87FD57
:10139000916000966105710539F432602E5F3D93CE
:1013A00030E32A95E1F708959F3F30F080387105CA
:1013B000610509F03C5F3C5F3D93913008F0806827
:1013C000911DDF93CF931F930F93FF92EF92192FED
:1013D000987F9695E92F96959695E90FFF27E65306
:1013E000FF4F99273327EE24FF24A701E70105903B
:1013F0000894079428F4360FE71EF81E491F511D64
:10140000660F771F881F991F0694A1F70590079410
:1014100028F4E70EF81E491F561FC11D770F881FBD
:10142000991F661F0694A1F70590079428F4F80EFB
:10143000491F561FC71FD11D880F991F661F771F91
:101440000694A1F70590079420F4490F561FC71F73
:10145000D81F990F661F771F881F0694A9F78491DC
:101460001095177041F0D695C79557954795F79405
:10147000E7941A95C1F7E0E7F0E0689415901591AC
:1014800035916591959105907FE27395E118F10A88
:10149000430B560BC90BD009C0F7E10CF11E431FDB
:1014A000561FC91FD01D7EF4703311F48A95E6CF04
:1014B000E894015030F0080F0AF40027021708F4EE
:1014C000202F2395022F7A3328F079E37D932A95F4
:1014D000E9F710C07D932A9589F60694979567954C
:1014E000379517951794E118F10A430B560BC90B62
:1014F000D00998F023957E9173957A3308F070E3C4
:101500007C932013B8F77E9170617D9330F08395C2
:1015100071E37D9370E32A95E1F71124EF90FF903A
:101520000F911F91CF91DF91992787FD9095089595
:10153000FC010590615070400110D8F7809590959E
:101540008E0F9F1F0895FC016150704001900110A3
:10155000D8F7809590958E0F9F1F08950F931F9336
:10156000CF93DF93FB01238121FD03C08FEF9FEF1A
:101570002CC022FF16C04681578124813581421735
:10158000530744F4A081B1819D012F5F3F4F318308
:1015900020838C93268137812F5F3F4F37832683AB
:1015A00014C08B01EC01FB010084F185E02D09954D
:1015B000892BE1F6D80116968D919C91179701968B
:1015C00017969C938E931697CE01DF91CF911F9122
:1015D0000F910895A0E0B0E0E0EFFAE00C949909D3
:1015E000AE014B5F5F4FFA0161917191AF01809144
:1015F000DE019091DF010E940C06E2E00C94B50937
:101600000F931F93CF93DF93E091DE01F091DF0101
:10161000238121FF1BC08C01D0E0C0E0F801819143
:101620008F016091DE017091DF01DB011896ED9171
:10163000FC911997882331F00995892B79F3DFEF15
:10164000CFEFECCF8AE00995892B19F08FEF9FEF50
:1016500002C08D2F9C2FDF91CF911F910F91089584
:10166000FA01AA27283051F1203181F1E8946F93D3
:101670006E7F6E5F7F4F8F4F9F4FAF4FB1E03ED079
:10168000B4E03CD0670F781F891F9A1FA11D680F17
:10169000791F8A1F911DA11D6A0F711D811D911D4A
:1016A000A11D20D009F468943F912AE0269F1124BF
:1016B0003019305D3193DEF6CF010895462F477023
:1016C000405D4193B3E00FD0C9F7F6CF462F4F707E
:1016D000405D4A3318F0495D31FD4052419302D0DC
:1016E000A9F7EACFB4E0A695979587957795679582
:1016F000BA95C9F700976105710508959B01AC0182
:101700000A2E06945795479537952795BA95C9F7A8
:10171000620F731F841F951FA01D0895F894FFCFBB
:101720000200000002000000009A03000000000315
:10173000040506070001025350492074696D656F66
:10174000757420617420627974652025640A0063D1
:10175000616C63756C6174655F726D732062656640
:101760006F726520666F72002069726D7320256646
:101770000A004932435F73746F72655F646174611C
:1017800020626567696E0053504920696E6974690B
:10179000616C697A656400616463315F637572725C
:1017A000656E745F6368616E6E656C5B25645D3A3F
:1017B00020252E36660A00616463325F637572729B
:1017C000656E745F6368616E6E656C5B25645D3A1F
:0817D00020252E36660A0000F8
:00000001FF
